:100000000C9475000C949D000C949D000C949D0024
:100010000C949D000C949D000C949D000C949D00EC
:100020000C949D000C949D000C949D000C949D00DC
:100030000C949D000C949D000C949D000C949D00CC
:100040000C94EB080C949D000C945B090C943509FE
:100050000C949D000C949D000C949D000C949D00AC
:100060000C948D090C949D00402370726F6772612F
:100070006D23002370726F6772616D2321002370FE
:10008000726F6772616D234F4B21002440000000A6
:100090000000240027002A0000000000250028009E
:1000A0002B000000000023002600290004040404A3
:1000B0000404040402020202020203030303030312
:1000C00001020408102040800102040810200102EF
:1000D00004081020000000080002010000030407CB
:1000E0000000000000000000AC0A11241FBECFEF8A
:1000F000D8E0DEBFCDBF27E0A2E4B1E001C01D9291
:10010000A538B207E1F711E0A0E0B1E0EAE3F6E3D9
:1001100002C005900D92A234B107D9F710E0C5E7EF
:10012000D0E004C02197FE010E940919C437D1070D
:10013000C9F70E94F40A0C941B1B0C940000E8ED14
:10014000F4E09F01285D34402817390714F4119218
:10015000F8CF0895833081F028F4813099F082300F
:10016000A9F008958730A9F08830C9F08430B1F43F
:10017000809180008F7D03C0809180008F77809375
:100180008000089584B58F7784BD089584B58F7DF0
:10019000FBCF8091B0008F778093B000089580915D
:1001A000B0008F7DF9CFCF93DF93282F30E0F90196
:1001B000EC52FF4F8491F901E054FF4FD491F901C3
:1001C000E455FF4FC491CC23A1F081110E94AA00F5
:1001D000EC2FF0E0EE0FFF1FEE55FF4FA591B4910D
:1001E000EC91ED2381E090E009F480E0DF91CF9184
:1001F000089580E090E0FACF1F93CF93DF93282FEC
:1002000030E0F901EC52FF4F8491F901E054FF4FC7
:10021000D491F901E455FF4FC491CC23A9F0162FD6
:1002200081110E94AA00EC2FF0E0EE0FFF1FE856AC
:10023000FF4FA591B4918FB7F894EC91111108C0BC
:10024000D095DE23DC938FBFDF91CF911F9108956E
:10025000DE2BF8CFCF93DF9390E0FC01E054FF4F0B
:10026000249184559F4FFC0184918823D1F090E024
:10027000880F991FFC01E257FF4FA591B491FC0133
:10028000E856FF4FC591D49161110EC09FB7F89405
:100290008C91E22FE0958E238C932881E223E883D2
:1002A0009FBFDF91CF9108958FB7F894EC91E22B27
:1002B000EC938FBFF6CF3FB7F8948091D404909120
:1002C000D504A091D604B091D70426B5A89B05C04B
:1002D0002F3F19F00196A11DB11D3FBFBA2FA92FC5
:1002E000982F8827BC01CD01620F711D811D911DC2
:1002F00042E0660F771F881F991F4A95D1F708952E
:100300008F929F92AF92BF92CF92DF92EF92FF9225
:100310004B015C010E945B016B017C010E945B014F
:100320006C197D098E099F09683E7340810591050E
:10033000A8F321E0821A9108A108B10888EEC80E3E
:1003400083E0D81EE11CF11C81149104A104B104C6
:1003500029F7FF90EF90DF90CF90BF90AF909F90E4
:100360008F9008952FB7F8946091D0047091D104C4
:100370008091D2049091D3042FBF089508950895D9
:10038000AF92BF92CF92DF92EF92FF920F931F93A3
:10039000CF93DF936C017B018B01040F151FEB01E1
:1003A0005E01AE18BF08C017D10759F06991D60198
:1003B000ED91FC910190F081E02DC6010995892B0A
:1003C00079F7C501DF91CF911F910F91FF90EF90C9
:1003D000DF90CF90BF90AF900895FC01538D448D76
:1003E000252F30E0842F90E0821B930B541710F0E0
:1003F000CF96089501970895FC01918D828D9817ED
:1004000061F0A28DAE0FBF2FB11D5D968C91928DC4
:100410009F5F9F73928F90E008958FEF9FEF0895F5
:10042000FC01918D828D981731F0828DE80FF11DBE
:10043000858D90E008958FEF9FEF0895FC01918DD9
:10044000228D892F90E0805C9F4F821B91098F73D2
:10045000992708958CEC96E00E941E0221E0892BDA
:1004600009F420E0822F0895FC01A48DA80FB92F74
:10047000B11DA35ABF4F2C91848D90E001968F73CC
:100480009927848FA689B7892C93A089B1898C91EB
:10049000837080648C93938D848D981306C002883A
:1004A000F389E02D80818F7D80830895EF92FF9204
:1004B0000F931F93CF93DF93EC0181E0888F9B8D87
:1004C0008C8D98131AC0E889F989808185FF15C041
:1004D0009FB7F894EE89FF896083E889F989808164
:1004E0008370806480839FBF81E090E0DF91CF9133
:1004F0001F910F91FF90EF900895F62E0B8D10E055
:100500000F5F1F4F0F731127E02E8C8D8E110CC0C3
:100510000FB607FCFACFE889F989808185FFF5CF0E
:10052000CE010E943402F1CFEB8DEC0FFD2FF11DB7
:10053000E35AFF4FF0829FB7F8940B8FEA89FB894B
:1005400080818062CFCF0F931F93CF93DF938C0175
:10055000D0E0C0E0F801EC0FFD1F6491662341F08C
:100560008CEC96E00E945602892B11F02196F2CF76
:10057000CE01DF91CF911F910F910895682F8CECE0
:1005800096E00C945602CF93DF93EC01888D88237C
:10059000B9F0AA89BB89E889F9898C9185FD03C0E6
:1005A000808186FD0DC00FB607FCF7CF8C9185FFCB
:1005B000F2CF808185FFEDCFCE010E943402E9CFDA
:1005C000DF91CF9108952091AC01260F3327331F7F
:1005D00021323105ECF42091D001FC0190E080E063
:1005E000243069F082E00895A091AC012191AC0122
:1005F00044575E4FA40FB52FB11D2C93019686175B
:1006000098F38091AC01680F6093AC0180E008958D
:1006100081E008951092D00181E08093D201109280
:10062000D10161E082E10E94FC0061E083E10E946F
:10063000FC00E9EBF0E080818E7F808380818D7FFC
:10064000808388E48093B80085E48093BC0008959B
:10065000CF93DF9391E090938B018823B9F0C09101
:10066000B800D091BA008091BC008A7B8093BC0016
:1006700060E082E10E94FC0060E083E10E94FC00F7
:100680000E940A03D093BA00C093B800DF91CF91C3
:1006900008950895E091FD018091FC01E81730F480
:1006A000F0E0EA59FE4F808190E008958FEF9FEFD0
:1006B00008959091FD018091FC012FEF3FEF981775
:1006C00048F4E92FF0E0EA59FE4F208130E09F5FC7
:1006D0009093FD01C90108958091FC019091FD0165
:1006E000891B990B0895CF92DF92EF92FF920F939F
:1006F0001F93CF93DF937C01CB018A012091650189
:10070000222389F0EB016B01C40ED51ECC15DD054B
:1007100069F06991D701ED91FC910190F081E02D94
:10072000C7010995F3CF642F0E94E302C801DF914E
:10073000CF911F910F91FF90EF90DF90CF90089590
:10074000CF93DF931F92CDB7DEB769832091650108
:100750002223F9F02091FA01203258F021E030E014
:10076000FC013383228390E080E00F90DF91CF91F2
:1007700008958091FB01E82FF0E0EB5BFE4F99813B
:1007800090838F5F8093FB018093FA0181E090E07A
:10079000ECCF61E0CE0101960E94E302F7CFCF9249
:1007A000DF92EF92FF920F931F93CF93DF93FC01A1
:1007B000C48121E020936501C09344011092FB01A4
:1007C0001092FA018385682B89E697E00E94A003C6
:1007D000D091FA01D13208F092C00E945B016B0106
:1007E0007C018091D001811165C082E08093D001AD
:1007F00081E08093D2018FEF8093CF011092F401BA
:10080000D093F301A5E4B1E0E3EDF1E080E0D8138B
:1008100085C01092F5018091F501CC0FC82BC093D3
:10082000F5018091D101813009F07CC01092D10195
:100830000E945B016B017C018091F5018093BB00FC
:100840008091870190918801A0918901B0918A01DE
:10085000892B8A2B8B2B99F00E945B0100918701D9
:10086000109188012091890130918A016C197D09CC
:100870008E099F090617170728073907E0F18091AD
:10088000BC0083FDD9CF85EC8093BC000E945B0146
:100890006B017C018091D001823009F445C08091C8
:1008A000CF018F3F61F18091CF01803241F1809182
:1008B000CF0125C08091870190918801A091890185
:1008C000B0918A01892B8A2B8B2B09F48ACF0E9445
:1008D0005B0100918701109188012091890130917D
:1008E0008A016C197D098E099F09061717072807C9
:1008F000390708F076CF809186010E942803109274
:10090000FB011092FA0110926501DF91CF911F91C6
:100910000F91FF90EF90DF90CF9008959D9191936C
:100920008F5F75CF85EEB0CF809187019091880160
:10093000A0918901B0918A01892B8A2B8B2B09F414
:10094000A9CF0E945B01009187011091880120913D
:10095000890130918A016C197D098E099F0906175A
:1009600017072807390708F095CFC5CF089590E0FD
:1009700080E008952091420130914301E8EDF4E0D8
:1009800090E080E0821793072CF44191411104C05C
:100990000196F8CF8FEF9FEF0895FC01E852FB4FCF
:1009A00080818D32B1F090E080E04AE09F01285DC7
:1009B0003440261737077CF4489F9001499F300D3B
:1009C00011248191082E000C990BC097820F931F60
:1009D000EDCF8FEF9FEF0895482F20914201309186
:1009E0004301E8EDF4E090E080E0821793072CF4F7
:1009F0005191541721F00196F8CF8FEF9FEF089592
:100A00000F931F93CF938C01C62F0E94CF036C2F9F
:100A10006460C8010E94CF036C2F6B7FC8010E94E5
:100A2000CF0383EC90E00197F1F7CF911F910F91E5
:100A300008950F931F93CF93DF938C01D62FC42F6C
:100A4000607F642B0E94000580E1D89FB0011124D3
:100A50006C2BC801DF91CF911F910F910C94000571
:100A6000CF93DF93CDB7DEB728970FB6F894DEBFEC
:100A70000FBECDBF98E0E8E0F1E0DE0111960190F5
:100A80000D929A95E1F790917D07961708F46FEF14
:100A9000262F30E0220F331F41E050E04C0F5D1F46
:100AA000240F351FF9016081680F606840E085E719
:100AB00097E028960FB6F894DEBF0FBECDBFDF914A
:100AC000CF910C94190541E00E94190581E090E056
:100AD00008950F931F93CF93DF93EC018881998141
:100AE000009759F02A813B812617370730F081E0C3
:100AF000DF91CF911F910F9108958B016F5F7F4F11
:100B00000E94341A009759F0998388831B830A83C3
:100B10002C813D81232B59F7FC011082E8CF80E026
:100B2000E7CF8F929F92AF92BF92EF92FF920F9377
:100B30001F93CF93DF93CDB7DEB7A1970FB6F8948D
:100B4000DEBF0FBECDBF7C01FA01CB0119A222305E
:100B500008F42AE08E010F5D1F4F822E912CB12CDC
:100B6000A12CBF01A50194010E946D18F901CA01D1
:100B70006A3074F5605DD8016E938D01232B242BB0
:100B8000252B79F790E080E0109789F0FD01019026
:100B90000020E9F73197AF014A1B5B0BD701ED91BC
:100BA000FC910280F381E02DB801C7010995A1965F
:100BB0000FB6F894DEBF0FBECDBFDF91CF911F916E
:100BC0000F91FF90EF90BF90AF909F908F900895FE
:100BD000695CD1CF462F50E070E060E02AE00C94D1
:100BE0009105CF92DF92EF92FF92CF93DF936C014A
:100BF000990FEE08FF08F7FE19C08DE20E94BE02B1
:100C0000EC0144275527BA014C195D096E097F098B
:100C10002AE08CEC96E00E9491058C0F9D1FDF91DD
:100C2000CF91FF90EF90DF90CF9008952AE0B70129
:100C3000A6018CEC96E0DF91CF91FF90EF90DF90D2
:100C4000CF900C949105FF920F931F93CF93DF9356
:100C5000F82E60912D028CEC96E00E94EA0584E269
:100C60000E94BE0260912E028CEC96E00E94EA0582
:100C700084E20E94BE0260912F028CEC96E00E94FA
:100C8000EA058BE890E00E94A302CDE2D2E010E0FA
:100C900000E0239680912D0280171106A1F09CF0B0
:100CA0008881082E000C990B0E94F1058BE30E94AD
:100CB000BE0289819A810E94F10584E20E94BE02EF
:100CC0000F5F1F4FE6CF80E40E94BE02CCE5D3E069
:100CD00010E000E080912E0280171106A9F0A4F028
:100CE0008881082E000C990B0E94F1058BE30E946D
:100CF000BE0289819A810E94F10584E20E94BE02AF
:100D00000F5F1F4F2396E6CF80E40E94BE02CEE223
:100D1000D4E010E000E080912F0280171106A9F0C6
:100D2000A4F08881082E000C990B0E94F1058BE33A
:100D30000E94BE0289819A810E94F10584E20E948C
:100D4000BE020F5F1F4F2396E6CF80E40E94BE02D3
:100D50008EE790E0F11002C083E790E0DF91CF9141
:100D60001F910F91FF900C94A30285ED8093BC001E
:100D70008091870190918801A0918901B0918A01A9
:100D80000796A11DB11D23E0B695A7959795879568
:100D90002A95D1F72091BC0024FD03C01092D00108
:100DA0000895409187015091880160918901709167
:100DB0008A01452B462B472B69F30097A105B10506
:100DC00041F02AE22A95F1F700C00197A109B10983
:100DD000E1CF809186010C9428036F927F928F92CD
:100DE0009F92AF92BF92CF92DF92EF92FF920F93BA
:100DF0001F93CF93DF93CDB7DEB72C970FB6F89440
:100E0000DEBF0FBECDBF2CEC622E26E0722E8CEC26
:100E100096E00E941E02892B09F4C2C18CEC96E078
:100E20000E94FC010091420110914301813209F0BE
:100E30009AC118861F821A8619861C861B8670E046
:100E400060E0CE0107960E9469052F8138858111E7
:100E500038C02115310519F0C9010E94AB19188657
:100E60001F821C861B861A861986980123533B4FC6
:100E7000590198EDE92E94E0F92E08521B4FA01667
:100E8000B10639F1F50181915F0189831A82CB8422
:100E9000DC84FFEFCF1ADF0AB601CE0107960E946D
:100EA0006905882361F32F8138858B859C85BE0178
:100EB0006F5F7F4F820F931F0E94FA1ADC86CB86EA
:100EC000DECF1C861B8660E471E0C9010E94FA1A1D
:100ED000CCCF1A8219821C821B821E821D826AE07C
:100EE00070E0CE0101960E94690529813A81811145
:100EF00099C02115310519F0C9010E94AB191A8258
:100F000019821E821D821C821B82C980DA808B8519
:100F10009C85892B09F490C00F811885B601C80102
:100F20000E94011B009709F487C09C01201B310B14
:100F30008901C114D10419F0C6010E94AB198F8137
:100F40009885009711F00E94AB1980E010161106E9
:100F50000CF0FCC084E20E94EC04BC0190E080E054
:100F60000E94CD0480932D0284E20E94EC0401963D
:100F70000E949F0084E20E94EC048C010E94BA044B
:100F8000B8010E94CD0480932E0284E20E94EC04FA
:100F900001960E949F0084E20E94EC048C010E9452
:100FA000BA04B8010E94CD0480932F0280E40E940D
:100FB000EC0401960E949F008DE2C82E82E0D82E9C
:100FC0008601B12CA12C0D5F1F4F80912D028A1537
:100FD0001B04A9F1A4F18BE30E94EC044C010E94D4
:100FE000BA04B4010E94CD04F80180838BE30E940F
:100FF000EC0401960E949F0084E20E94EC044C01E4
:101000000E94BA04B4010E94CD04F8019283818346
:1010100084E20E94EC0401960E949F00FFEFAF1A49
:10102000BF0AD1CF8AE090E09E838D8368E670E0AE
:10103000C9010E94191869CF0FEF1FEF7ACF80E422
:101040000E94EC0401960E949F000CE513E0B12C75
:10105000A12C80912E028A151B0451F14CF18BE3D7
:101060000E94EC044C010E94BA04B4010E94CD0419
:10107000F80180838BE30E94EC0401960E949F009C
:1010800084E20E94EC044C010E94BA04B4010E9464
:10109000CD04F8019283818384E20E94EC040196DE
:1010A0000E949F00FFEFAF1ABF0A0D5F1F4FD1CF05
:1010B00080E40E94EC0401960E949F000EE214E07E
:1010C000B12CA12C80912F028A151B0451F14CF1F7
:1010D0008BE30E94EC044C010E94BA04B4010E940C
:1010E000CD04F80180838BE30E94EC0401960E94FA
:1010F0009F0084E20E94EC044C010E94BA04B401F7
:101100000E94CD04F8019283818384E20E94EC0462
:1011100001960E949F00FFEFAF1ABF0A0D5F1F4F9D
:10112000D1CF10E000E0F601B1906F01C8010E943C
:101130002018B81621F06B2DC8010E9428180F5FE7
:101140001F4F0739F2E01F0771F781E00E94230665
:101150001092430110924201F70111927F016E1625
:101160007F06D1F754CE033F114059F4109243014A
:1011700010924201E8EDF4E0119226E0EC3CF20717
:10118000D9F72091420130914301F901E852FB4F18
:1011900080832F5F3F4F309343012093420137CE2E
:1011A0002C960FB6F894DEBF0FBECDBFDF91CF9166
:1011B0001F910F91FF90EF90DF90CF90BF90AF9075
:1011C0009F908F907F906F9008950E942A028111C6
:1011D0000C94ED0608951F920F920FB60F921124F2
:1011E0002F933F938F939F93AF93BF938091D0049E
:1011F0009091D104A091D204B091D3043091CF0446
:1012000023E0230F2D3758F50196A11DB11D209322
:10121000CF048093D0049093D104A093D204B093D0
:10122000D3048091D4049091D504A091D604B091B8
:10123000D7040196A11DB11D8093D4049093D504C9
:10124000A093D604B093D704BF91AF919F918F9193
:101250003F912F910F900FBE0F901F90189526E889
:10126000230F0296A11DB11DD2CF1F920F920FB670
:101270000F9211242F933F934F935F936F937F931C
:101280008F939F93AF93BF93EF93FF938CEC96E074
:101290000E943402FF91EF91BF91AF919F918F9186
:1012A0007F916F915F914F913F912F910F900FBE62
:1012B0000F901F9018951F920F920FB60F92112446
:1012C0002F938F939F93EF93FF93E091DC06F09120
:1012D000DD068081E091E206F091E30682FD1BC00D
:1012E00090818091E5068F5F8F732091E6068217CB
:1012F00041F0E091E506F0E0E453F94F958F8093DB
:10130000E506FF91EF919F918F912F910F900FBE66
:101310000F901F9018958081F4CF1F920F920FB6F7
:101320000F9211242F933F934F935F936F937F936B
:101330008F939F93AF93BF93EF93FF938091B900E7
:10134000887F803609F44AC0F0F5883209F4A7C0D6
:1013500018F5803109F49BC0B8F4882309F4F9C06A
:10136000883009F494C0FF91EF91BF91AF919F91A4
:101370008F917F916F915F914F913F912F910F903E
:101380000FBE0F901F901895883109F488C08032E5
:1013900051F78093CF0114C0803409F49DC040F40C
:1013A0008033B9F38833F9F68093CF0185ECB0C070
:1013B000803509F485C0883509F496C0883499F6DB
:1013C0000E94B506D0CF883909F48CC038F588372B
:1013D00029F050F4883611F0803729F683E08093A5
:1013E000D0011092CE0157C0883809F47BC08039F3
:1013F00019F0803809F0B7CF8091CE01803208F023
:1014000071C0E091CE0181E08E0F8093CE0180917A
:10141000BB00F0E0E255FE4F80833DC0803B39F0D9
:10142000E0F4803A09F479C0883A09F09CCF84E06E
:101430008093D0011092AD011092AC01E091F801BF
:10144000F091F90109958091AC0181110FC081E003
:101450008093AC0110928C0109C0803C09F4A6CFA6
:10146000883C09F4A3CF883B09F07DCFE091AD0122
:1014700081E08E0F8093AD01F0E0E457FE4F808154
:101480008093BB009091AD018091AC0129C0809107
:10149000F5018093BB0085EC8093BC0064CF9091F4
:1014A000F4018091F301981758F5E091F40181E07F
:1014B0008E0F8093F401F0E0ED52FE4F8081E9CF72
:1014C000E091F40181E08E0F8093F4018091BB00E4
:1014D000F0E0ED52FE4F80839091F4018091F30192
:1014E0009817C8F285E8D8CFE091F40181E08E0F1B
:1014F0008093F4018091BB00F0E0ED52FE4F8083B9
:101500008091D20181115CCF81E08093D10184EA86
:101510008093BC001092D00126CF85EC8093BC0054
:101520001092D0018091CE01803230F4E091CE0152
:10153000F0E0E255FE4F10826091CE0170E0E09144
:10154000F601F091F7018EEA91E009951092CE0133
:101550000ACF1092CF0134CFECECF6E01382128266
:1015600088EE93E0A0E0B0E084839583A683B78300
:1015700024E131E03183208325EC30E03587248776
:1015800024EC30E03787268720EC30E0318B208B4D
:1015900021EC30E0338B228B22EC30E0358B248B36
:1015A00026EC30E0378B268B118E128E138E148E24
:1015B000E9E6F7E01382128284839583A683B783DA
:1015C00086E291E091838083E5E7F7E0138212825F
:1015D00088E391E09183808387E2848380E181873F
:1015E00082E0828713860895CF93DF93CDB7DEB76D
:1015F0002C970FB6F894DEBF0FBECDBF789484B59C
:10160000826084BD84B5816084BD85B5826085BDFE
:1016100085B5816085BD80916E00816080936E008C
:10162000109281008091810082608093810080917E
:10163000810081608093810080918000816080932F
:1016400080008091B10084608093B1008091B000EF
:1016500081608093B00080917A00846080937A00EA
:1016600080917A00826080937A0080917A00816014
:1016700080937A0080917A00806880937A0010923B
:10168000C10061E089E00E942A0161E089E00E94D6
:10169000FC0061E083E00E942A0161E083E00E9497
:1016A000FC0061E084E00E942A0161E084E00E9485
:1016B000FC0061E085E00E942A0161E085E00E9473
:1016C000FC0061E086E00E942A0161E086E00E9461
:1016D000FC0061E087E00E942A0161E087E00E944F
:1016E000FC0061E088E00E942A0161E088E00E943D
:1016F000FC0061E082E00E942A0161E082E00E9439
:10170000FC0060E08AE00E942A0160E08BE00E9419
:101710002A0160E08CE00E942A011092FD011092E3
:10172000FC011092FB011092FA010E940A038EEB59
:1017300091E09093F9018093F8018FEB91E0909301
:10174000F7018093F60110927A0780917F0782302B
:1017500018F098E090937A0780937D0762E370E039
:1017600080E090E00E9480016091800785E797E02B
:101770000E94CF0368EE73E080E090E00E94800159
:1017800060E385E797E00E9400058BE496E401970B
:10179000F1F760E385E797E00E9400050BE416E4AB
:1017A000C8010197F1F760E385E797E00E94000523
:1017B00083E592E00197F1F760E285E797E00E9408
:1017C000000560917A07606240E085E797E00E943B
:1017D000190584E080937B0740E06CE085E797E0A3
:1017E0000E94190540E061E085E797E00E94190535
:1017F0008BE39FE10197F1F782E080937C0740E063
:1018000066E085E797E00E94190540E062E085E721
:1018100097E00E941905EBE3FFE13197F1F788E0CB
:101820008093800760E085E797E00E94CF030DE298
:1018300012E01A82198289819A810E942018F80187
:1018400081938F0129813A812F5F3F4F3A8329830A
:101850002739324081F7E091DC06F091DD0682E025
:101860008083E091D806F091D9061082E091DA06E3
:10187000F091DB068FEC80831092E406E091E006A5
:10188000F091E10686E08083E091DE06F091DF06CC
:10189000808180618083E091DE06F091DF068081A7
:1018A00088608083E091DE06F091DF0680818068A9
:1018B0008083E091DE06F091DF0680818F7D80835A
:1018C0000E94B2015B016C01E12CF12C8701BA820C
:1018D0008B83DC82ED82FE820F8318879B01AC0133
:1018E00060E070E080E090E0A090C704B090C80491
:1018F000C090C904D090CA04E090CB04F090CC040E
:101900000091CD041091CE040E94F718243F31407D
:1019100041055105610571058105910509F008F43E
:1019200082C040E061E085E797E00E9419058BE303
:101930009FE10197F1F760E080E00E94300560913F
:10194000C60485E797E00E94EA0560E084E00E9413
:1019500030056091C50485E797E00E94EA0560E0E4
:1019600088E00E9430056091C40485E797E00E94FA
:10197000EA0561E080E00E94300560912D0285E774
:1019800097E00E94EA0561E084E00E9430056091E2
:101990002E0285E797E00E94EA0561E088E00E9458
:1019A000300560912F0285E797E00E94EA0560E02C
:1019B0008DE00E94300560912C0285E797E00E943F
:1019C000EA0560E08EE00E94300560912B0285E719
:1019D00097E00E94EA0560E08FE00E943005609188
:1019E0002A0285E797E00E94EA050E94B2015B01A6
:1019F0006C01E12CF12C8701BA828B83DC82ED82B1
:101A0000FE820F8318876093C704B092C804809346
:101A1000C904D092CA041092CB041092CC04109244
:101A2000CD041092CE048BE00E94D300892B11F4D8
:101A30000C94DC178AE00E94D300B0900101B982B7
:101A4000892B11F40C94A517B110F0C00E94B201BB
:101A50001B012C017090220280902302909024029E
:101A6000C0902502CC86D0902602DB8660902702AB
:101A7000E0902802E986F0902902FA8620911A0265
:101A800030911B0240911C0250911D0260911E0278
:101A900070911F028091200290912102A72CB82CF6
:101AA000C92CDC84EB84F62C09851A850E94F71872
:101AB00062015101E12CF12C00E010E00E94EE18CF
:101AC00020931A0230931B0240931C0250931D0274
:101AD00060931E0270931F02809320029093210254
:101AE0000E94B2011B012C012091120230911302BD
:101AF00040911402509115026091160270911702E4
:101B00008091180290911902A72CB82CC92CDC8462
:101B1000EB84F62C09851A850E94F71862015101A1
:101B2000E12CF12C8701BA824B82DC82ED82FE82AD
:101B30000F831887E12CF12C00E010E00E94EE18D2
:101B40002093120230931302409314025093150213
:101B500060931602709317028093180290931902F3
:101B60000E94B2011B012C0120910A0230910B024C
:101B700040910C0250910D0260910E0270910F0283
:101B80008091100290911102A72CB82CC92CDC84F2
:101B9000EB84F62C09851A850E94F7185101620121
:101BA000E12CF12C00E010E00E94EE1820930A02D4
:101BB00030930B0240930C0250930D0260930E027F
:101BC00070930F02809310029093110260910902AA
:101BD000BB24B3946B2589E00E94FC00609108024D
:101BE0006B2583E00E94FC00609107026B2584E076
:101BF0000E94FC00609106026B2585E00E94FC00BB
:101C0000609105026B2586E00E94FC006091040251
:101C10006B2587E00E94FC00609103026B2588E041
:101C20000E94FC0061E082E00E94FC00CC24C3948E
:101C3000C09201011092020210920102D090C604DB
:101C4000D98280912D02D81608F0B6C28D2D90E071
:101C50000196FC01EE0FFF1FE80FF91FE35DFD4F3A
:101C6000808181110AC060E088E00E94FC00C0927F
:101C7000030209810F5F0093C6041091C604198303
:101C8000812F90E00196FC01EE0FFF1FE80FF91F76
:101C9000E35DFD4F8081813049F461E088E00E947E
:101CA000FC00109203021F5F1093C6042091C6042B
:101CB0002983822E912CC4010196FC01EE0FFF1F97
:101CC000E80FF91FE35DFD4F8081823029F5809197
:101CD00000028111D7C70E94B2015B016C01E12CA7
:101CE000F12C8701BA828B83DC82ED82FE820F8326
:101CF000188760931A02B0921B0280931C02D09244
:101D00001D0210921E0210921F02109220021092C9
:101D1000210281E0809300021091C6041983812F73
:101D200090E00196FC01EE0FFF1FE80FF91FE35D45
:101D3000FD4F8081833041F48CE00E94D300892BD9
:101D400019F01F5F1093C604A090C604A9828A2DC3
:101D500090E00196FC01EE0FFF1FE80FF91FE35D15
:101D6000FD4F8081843049F48CE00E94D300892BA0
:101D700021F409810F5F0093C6041091C6041983F2
:101D8000812F90E00196FC01EE0FFF1FE80FF91F75
:101D9000E35DFD4F8081853051F460E083E00E9477
:101DA000FC0081E0809308021F5F1093C604A0909E
:101DB000C604A9828A2D90E00196FC01EE0FFF1F58
:101DC000E80FF91FE35DFD4F8081863051F461E03B
:101DD00083E00E94FC001092080209810F5F0093CB
:101DE000C6041091C6041983812F90E00196FC016E
:101DF000EE0FFF1FE80FF91FE35DFD4F8081873075
:101E000051F460E089E00E94FC0081E080930902C7
:101E10001F5F1093C604A090C604A9828A2D90E08B
:101E20000196FC01EE0FFF1FE80FF91FE35DFD4F68
:101E30008081883051F461E089E00E94FC001092BA
:101E4000090209810F5F0093C6041091C60419832B
:101E5000812F90E00196FC01EE0FFF1FE80FF91FA4
:101E6000E35DFD4F8081893051F460E084E00E94A1
:101E7000FC0081E0809307021F5F1093C604A090CE
:101E8000C604A9828A2D90E00196FC01EE0FFF1F87
:101E9000E80FF91FE35DFD4F80818A3051F461E066
:101EA00084E00E94FC001092070209810F5F0093FA
:101EB000C6041091C6041983812F90E00196FC019D
:101EC000EE0FFF1FE80FF91FE35DFD4F80818B30A0
:101ED00051F460E085E00E94FC0081E080930602FE
:101EE0001F5F1093C604A090C604A9828A2D90E0BB
:101EF0000196FC01EE0FFF1FE80FF91FE35DFD4F98
:101F000080818C3051F461E085E00E94FC001092E9
:101F1000060209810F5F0093C6041091C60419835D
:101F2000812F90E00196FC01EE0FFF1FE80FF91FD3
:101F3000E35DFD4F80818D3029F580910002811194
:101F4000E4C60E94B2015B016C01E12CF12C870117
:101F5000BA828B83DC82ED82FE820F8318876093C6
:101F60001A02B0921B0280931C02D0921D021092A2
:101F70001E0210921F02109220021092210281E094
:101F800080930002A090C604A9828A2D90E0019659
:101F9000FC01EE0FFF1FE80FF91FE35DFD4F80818D
:101FA0008E3059F460E086E00E94FC0081E080936E
:101FB000050209810F5F0093C6041091C6041983BE
:101FC000812F90E00196FC01EE0FFF1FE80FF91F33
:101FD000E35DFD4F80818F3049F461E086E00E942F
:101FE000FC00109205021F5F1093C604A090C60467
:101FF000A9828A2D90E00196FC01EE0FFF1FE80FE9
:10200000F91FE35DFD4F8081803159F460E087E086
:102010000E94FC0081E08093040209810F5F00931D
:10202000C6041091C6041983812F90E00196FC012B
:10203000EE0FFF1FE80FF91FE35DFD4F8081813137
:1020400049F461E087E00E94FC00109204021F5FE7
:102050001093C604A090C604A9828A2D90E0019630
:10206000FC01EE0FFF1FE80FF91FE35DFD4F8081BC
:10207000823109F045C080912C02811110C060E0CE
:1020800083E00E94FC008CE00E94D300892B09F1C0
:1020900061E083E00E94FC0081E080932C02B0901C
:1020A0002C02B9860B2D0130A1F460E084E00E947F
:1020B000FC00B09207028CE00E94D300892B01F54E
:1020C00012E010932C0268EB7BE080E090E00E942D
:1020D000800180912C02823099F460E083E00E94BC
:1020E000FC008CE00E94D300892B51F061E083E07A
:1020F0000E94FC0010922C0209810F5F0093C6041D
:102100001091C6041983812F90E00196FC01EE0F17
:10211000FF1FE80FF91FE35DFD4F8081833109F058
:102120004BC080912C02811110C060E083E00E94BE
:10213000FC008CE00E94D300892B09F161E083E070
:102140000E94FC0081E080932C02A0902C02A986C2
:102150000A2D0130A1F460E084E00E94FC00A0920E
:1021600007028CE00E94D300892B31F512E0109316
:102170002C0268EB7BE080E090E00E94800180917F
:102180002C028230C9F460E083E00E94FC008CE005
:102190000E94D300892B81F061E083E00E94FC0063
:1021A00061E084E00E94FC001092070210922C0271
:1021B00009810F5F0093C6041091C50419838091B3
:1021C0002E02181708F0A6C2812F90E0FC01EE0F36
:1021D000FF1FE80FF91FE45AFC4F808181110AC0EC
:1021E00060E088E00E94FC0081E0809303021F5FB2
:1021F0001093C504A090C504A9828A2D90E0FC012B
:10220000EE0FFF1FE80FF91FE45AFC4F8081813069
:1022100051F461E088E00E94FC0010920302098101
:102220000F5F0093C5049090C504892D90E09C0138
:10223000220F331F280F391F235D3D4F3A83298317
:10224000F901E15DFE4F8081823029F58091FF0127
:1022500081118FC50E94B2015B016C01E12CF12C50
:102260008701BA828B83DC82ED82FE820F8318871E
:1022700060931202B092130280931402D09215025E
:102280001092160210921702109218021092190260
:1022900081E08093FF01A090C504A9828A2D90E07F
:1022A000FC01EE0FFF1FE80FF91FE45AFC4F80817D
:1022B000833049F48CE00E94D300892B21F00981FE
:1022C0000F5F0093C5041091C5041983812F90E01E
:1022D000FC01EE0FFF1FE80FF91FE45AFC4F80814D
:1022E000843041F48CE00E94D300892B19F41F5FE5
:1022F0001093C504A090C504A9828A2D90E0FC012A
:10230000EE0FFF1FE80FF91FE45AFC4F8081853064
:1023100059F460E083E00E94FC0081E080930802B1
:1023200009810F5F0093C5041091C5041983812FA3
:1023300090E0FC01EE0FFF1FE80FF91FE45AFC4F7D
:102340008081863049F461E083E00E94FC001092B5
:1023500008021F5F1093C504A090C504A9828A2DAE
:1023600090E0FC01EE0FFF1FE80FF91FE45AFC4F4D
:102370008081873059F460E089E00E94FC0081E0B0
:102380008093090209810F5F0093C5041091C50471
:102390001983812F90E0FC01EE0FFF1FE80FF91F5A
:1023A000E45AFC4F8081883049F461E089E00E9462
:1023B000FC00109209021F5F1093C504A090C50491
:1023C000A9828A2D90E0FC01EE0FFF1FE80FF91F94
:1023D000E45AFC4F8081893059F460E084E00E9427
:1023E000FC0081E08093070209810F5F0093C50420
:1023F0001091C5041983812F90E0FC01EE0FFF1F9F
:10240000E80FF91FE45AFC4F80818A3049F461E0FB
:1024100084E00E94FC00109207021F5F1093C50425
:10242000A090C504A9828A2D90E0FC01EE0FFF1F49
:10243000E80FF91FE45AFC4F80818B3059F460E0BB
:1024400085E00E94FC0081E08093060209810F5F15
:102450000093C5041091C5041983812F90E0FC01FD
:10246000EE0FFF1FE80FF91FE45AFC4F80818C30FC
:1024700049F461E085E00E94FC00109206021F5FB3
:102480001093C5042091C5042983822F90E0FC019C
:10249000EE0FFF1FE80FF91FE45AFC4F80818D30CB
:1024A00029F58091FF018111A6C40E94B2015B0150
:1024B0006C01E12CF12C8701BA828B83DC82ED82E6
:1024C000FE820F83188760931202B09213028093EA
:1024D0001402D09215021092160210921702109256
:1024E00018021092190281E08093FF01A090C504A8
:1024F000A9828A2D90E0FC01EE0FFF1FE80FF91F63
:10250000E45AFC4F80818E3059F460E086E00E94EE
:10251000FC0081E08093050209810F5F0093C504F0
:102520001091C5041983812F90E0FC01EE0FFF1F6D
:10253000E80FF91FE45AFC4F80818F3049F461E0C5
:1025400086E00E94FC00109205021F5F1093C504F4
:10255000A090C504A9828A2D90E0FC01EE0FFF1F18
:10256000E80FF91FE45AFC4F8081803159F460E094
:1025700087E00E94FC0081E08093040209810F5FE4
:102580000093C5041091C5041983812F90E0FC01CC
:10259000EE0FFF1FE80FF91FE45AFC4F80818131D5
:1025A00049F461E087E00E94FC00109204021F5F82
:1025B0001093C504A090C504A9828A2D90E0FC0167
:1025C000EE0FFF1FE80FF91FE45AFC4F80818231A4
:1025D00009F045C080912B02811110C060E083E0BA
:1025E0000E94FC008CE00E94D300892B09F161E07D
:1025F00083E00E94FC0081E080932B02B0902B02CC
:10260000B9860B2D0130A1F460E084E00E94FC004B
:10261000B09207028CE00E94D300892B01F512E0F2
:1026200010932B0268EB7BE080E090E00E94800139
:1026300080912B02823099F460E083E00E94FC00DC
:102640008CE00E94D300892B51F061E083E00E946E
:10265000FC0010922B0209810F5F0093C5041091BA
:10266000C5041983812F90E0FC01EE0FFF1FE80FD6
:10267000F91FE45AFC4F8081833109F04BC08091EF
:102680002B02811110C060E083E00E94FC008CE00E
:102690000E94D300892B09F161E083E00E94FC00D5
:1026A00081E080932B02A0902B02A9860A2D013095
:1026B000A1F460E084E00E94FC00A09207028CE09C
:1026C0000E94D300892B31F512E010932B0268EBA6
:1026D0007BE080E090E00E94800180912B028230BC
:1026E000C9F460E083E00E94FC008CE00E94D3000B
:1026F000892B81F061E083E00E94FC0061E084E0CE
:102700000E94FC001092070210922B0209810F5FB9
:102710000093C5041091C404198380912F021817E7
:1027200008F0A6C2812F90E0FC01EE0FFF1FE80F1A
:10273000F91FE25DFB4F808181110AC060E088E0F3
:102740000E94FC0081E0809303021F5F1093C40489
:10275000A090C404A9828A2D90E0FC01EE0FFF1F17
:10276000E80FF91FE25DFB4F8081813051F461E099
:1027700088E00E94FC001092030209810F5F009321
:10278000C4049090C404892D90E09C01220F331F53
:10279000280F391F235D3D4F3A832983F901EF5FED
:1027A000FD4F8081823029F58091FE01811157C350
:1027B0000E94B2015B016C01E12CF12C8701BA820D
:1027C0008B83DC82ED82FE820F83188760930A027E
:1027D000B0920B0280930C02D0920D0210920E0266
:1027E00010920F02109210021092110281E0809359
:1027F000FE01A090C404A9828A2D90E0FC01EE0F96
:10280000FF1FE80FF91FE25DFB4F8081833049F421
:102810008CE00E94D300892B21F009810F5F009387
:10282000C4041091C4041983812F90E0FC01EE0FC1
:10283000FF1FE80FF91FE25DFB4F8081843041F4F8
:102840008CE00E94D300892B19F41F5F1093C404FD
:10285000A090C404A9828A2D90E0FC01EE0FFF1F16
:10286000E80FF91FE25DFB4F8081853059F460E08D
:1028700083E00E94FC0081E08093080209810F5FE1
:102880000093C4041091C4041983812F90E0FC01CB
:10289000EE0FFF1FE80FF91FE25DFB4F80818630CE
:1028A00049F461E083E00E94FC00109208021F5F7F
:1028B0001093C404A090C404A9828A2D90E0FC0166
:1028C000EE0FFF1FE80FF91FE25DFB4F808187309D
:1028D00059F460E089E00E94FC0081E080930902E5
:1028E00009810F5F0093C4041091C4041983812FE0
:1028F00090E0FC01EE0FFF1FE80FF91FE25DFB4FB8
:102900008081883049F461E089E00E94FC001092E7
:1029100009021F5F1093C404A090C404A9828A2DE9
:1029200090E0FC01EE0FFF1FE80FF91FE25DFB4F87
:102930008081893059F460E084E00E94FC0081E0ED
:102940008093070209810F5F0093C4041091C404AF
:102950001983812F90E0FC01EE0FFF1FE80FF91F94
:10296000E25DFB4F80818A3049F461E084E00E949F
:10297000FC00109207021F5F1093C404A090C404CF
:10298000A9828A2D90E0FC01EE0FFF1FE80FF91FCE
:10299000E25DFB4F80818B3059F460E085E00E945E
:1029A000FC0081E08093060209810F5F0093C4045C
:1029B0001091C4041983812F90E0FC01EE0FFF1FDA
:1029C000E80FF91FE25DFB4F80818C3049F461E034
:1029D00085E00E94FC00109206021F5F1093C40461
:1029E0002091C4042983822F90E0FC01EE0FFF1F89
:1029F000E80FF91FE25DFB4F80818D3029F5809152
:102A0000FE0181116EC20E94B2015B016C01E12CDA
:102A1000F12C8701BA828B83DC82ED82FE820F83E8
:102A2000188760930A02B0920B0280930C02D09236
:102A30000D0210920E0210920F02109210021092CC
:102A4000110281E08093FE01A090C404A9828A2D26
:102A500090E0FC01EE0FFF1FE80FF91FE25DFB4F56
:102A600080818E3059F460E086E00E94FC0081E0B5
:102A70008093050209810F5F0093C4041091C40480
:102A80001983812F90E0FC01EE0FFF1FE80FF91F63
:102A9000E25DFB4F80818F3049F461E086E00E9467
:102AA000FC00109205021F5F1093C404A090C404A0
:102AB000A9828A2D90E0FC01EE0FFF1FE80FF91F9D
:102AC000E25DFB4F8081803159F460E087E00E9435
:102AD000FC0081E08093040209810F5F0093C4042D
:102AE0001091C4041983812F90E0FC01EE0FFF1FA9
:102AF000E80FF91FE25DFB4F8081813149F461E00D
:102B000087E00E94FC00109204021F5F1093C4042F
:102B1000A090C404A9828A2D90E0FC01EE0FFF1F53
:102B2000E80FF91FE25DFB4F8081823109F045C05B
:102B300080912A02811110C060E083E00E94FC00B5
:102B40008CE00E94D300892B09F161E083E00E94B0
:102B5000FC0081E080932A02B0902A02B9860B2DF6
:102B60000130A1F460E084E00E94FC00B092070212
:102B70008CE00E94D300892B01F512E010932A0209
:102B800068EB7BE080E090E00E94800180912A0267
:102B9000823099F460E083E00E94FC008CE00E94A7
:102BA000D300892B51F061E083E00E94FC00109279
:102BB0002A0209810F5F0093C4041091C404198391
:102BC000812F90E0FC01EE0FFF1FE80FF91FE25D7F
:102BD000FB4F8081833109F04BC080912A02811123
:102BE00010C060E083E00E94FC008CE00E94D300F3
:102BF000892B09F161E083E00E94FC0081E0809371
:102C00002A02A0902A02A9860A2D0130A1F460E0D0
:102C100084E00E94FC00A09207028CE00E94D30096
:102C2000892B31F512E010932A0268EB7BE080E0FB
:102C300090E00E94800180912A028230C9F460E015
:102C400083E00E94FC008CE00E94D300892B81F07D
:102C500061E083E00E94FC0061E084E00E94FC00EF
:102C60001092070210922A0209810F5F0093C40498
:102C70000E942A02882311F40C94600C0E94ED0635
:102C80000C94600C0E94B2019B01AC0160E070E00A
:102C900080E090E0A0901A02B0901B02C0901C024D
:102CA000D0901D02E0901E02F0901F0200912002C1
:102CB000109121020E94F718E8EEAE2EF3E0BF2E2D
:102CC000C12CD12CE12CF12C00E010E00E949118D5
:102CD000F401EE0FFF1FE80DF91DE35DFD4FB58018
:102CE000A4801B2D110F110BC12ED12EE12EF12E20
:102CF000012F0E94001909F008F40EC809810F5F26
:102D00000093C6041092000207C860E086E00E94AB
:102D1000FC000E94B2019B01AC0160E070E080E029
:102D200090E0A0901A02B0901B02C0901C02D090BC
:102D30001D02E0901E02F0901F02009120021091EF
:102D400021020E94F718273B3B40410551056105D0
:102D500071058105910509F008F414C961E086E068
:102D60000E94FC0019811F5F1093C604109200029C
:102D700009C90E94B2019B01AC0160E070E080E0F3
:102D800090E0A0901202B0901302C0901402D09074
:102D90001502E0901602F0901702009118021091AF
:102DA00019020E94F71808EEA02EE3E0BE2EC12CF7
:102DB000D12CE12CF12C00E010E00E949118098147
:102DC0001A81005D1E4F1A830983F801B180A0802B
:102DD0001B2D110F110BC12ED12EE12EF12E012F23
:102DE0000E94001909F008F456CA93949092C50401
:102DF0001092FF0150CA60E086E00E94FC000E9431
:102E0000B2019B01AC0160E070E080E090E0A09036
:102E10001202B0901302C0901402D0901502E090FC
:102E20001602F090170200911802109119020E94E8
:102E3000F718273B3B4041055105610571058105A8
:102E4000910509F008F452CB61E086E00E94FC0095
:102E500019811F5F1093C5041092FF0147CB0E9498
:102E6000B2019B01AC0160E070E080E090E0A090D6
:102E70000A02B0900B02C0900C02D0900D02E090BC
:102E80000E02F0900F0200911002109111020E94A8
:102E9000F718B8EEAB2E13E0B12EC12CD12CE12CDB
:102EA000F12C00E010E00E94911809811A810E5F58
:102EB0001D4F1A830983F801B180A0801B2D110FCB
:102EC000110BC12ED12EE12EF12E012F0E940019DF
:102ED00009F008F48ECC93949092C4041092FE01F1
:102EE00088CC60E086E00E94FC000E94B2019B0159
:102EF000AC0160E070E080E090E0A0900A02B09049
:102F00000B02C0900C02D0900D02E0900E02F090E7
:102F10000F0200911002109111020E94F718273B36
:102F20003B4041055105610571058105910509F099
:102F300008F48ACD61E086E00E94FC0019811F5FE1
:102F40001093C4041092FE017FCD61E089E00E94DD
:102F5000FC0061E083E00E94FC0061E084E00E94EC
:102F6000FC0061E085E00E94FC0061E086E00E94D8
:102F7000FC0061E087E00E94FC0061E088E00E94C4
:102F8000FC001981112309F473CE109201010E94F3
:102F9000B2015B016C0160932202B0922302809324
:102FA0002402D0922502109226021092270210923B
:102FB0002802109229025CCE8091010290910202B7
:102FC0008536910584F161E089E00E94FC0061E0B2
:102FD00083E00E94FC0061E084E00E94FC0061E06C
:102FE00085E00E94FC0061E086E00E94FC0061E058
:102FF00087E00E94FC0061E088E00E94FC00809174
:103000000001882309F434CE10922D021092C604D8
:1030100010922E021092C50410922F021092C40436
:103020001092000125CE0196909302028093010236
:103030001FCEFB01DC0105900D920020E1F7089501
:10304000F999FECF92BD81BDF89A992780B5089570
:10305000262FF999FECF1FBA92BD81BD20BD0FB6B4
:10306000F894FA9AF99A0FBE019608952F923F921A
:103070004F925F926F927F928F929F92AF92BF9288
:10308000CF92DF92EF92FF920F931F93CF93DF9334
:10309000CDB7DEB7CA1BDB0B0FB6F894DEBF0FBE91
:1030A000CDBF09942A88398848885F846E847D84DE
:1030B0008C849B84AA84B984C884DF80EE80FD80E0
:1030C0000C811B81AA81B981CE0FD11D0FB6F89456
:1030D000DEBF0FBECDBFED010895A1E21A2EAA1BDF
:1030E000BB1BFD010DC0AA1FBB1FEE1FFF1FA217B8
:1030F000B307E407F50720F0A21BB30BE40BF50BB5
:10310000661F771F881F991F1A9469F7609570953D
:10311000809590959B01AC01BD01CF010895689405
:1031200001C0E8948F929F92CF93DF930E949D18E5
:10313000DF91CF919F908F90089588249924F40176
:10314000E401B0E49F93AA279A158B049C04ED0533
:10315000FE05CF05D007A10798F4AD2FDC2FCF2FA8
:10316000FE2FE92D982C892E982F872F762F652FEB
:10317000542F432F322F2227B85031F7BF9127C049
:103180001B2EBF91BB27220F331F441F551F661FE5
:10319000771F881F991F881C991CEE1FFF1FCC1FCB
:1031A000DD1FAA1FBB1F8A149B04EC05FD05CE057D
:1031B000DF05A007B10748F08A189B08EC09FD0954
:1031C000CE09DF09A00BB10B21601A94E1F62EF4B1
:1031D0009401AF01BE01CD01000C08952A0D3B1DE5
:1031E0004C1D5D1D6E1D7F1D801F911F08952A19A6
:1031F0003B094C095D096E097F09800B910B08950D
:103200002A153B054C055D056E057F058007910776
:103210000895EE0FFF1F0590F491E02D09940F9390
:103220001F93CF93DF938230910510F482E090E0FA
:10323000E0918307F091840730E020E0B0E0A0E067
:10324000309799F42115310509F44AC0281B390B30
:1032500024303105D8F58A819B816115710589F18A
:10326000FB0193838283FE0111C040815181028161
:10327000138148175907E0F04817590799F4109738
:1032800061F012960C93129713961C933296CF010D
:10329000DF91CF911F910F910895009383071093B1
:1032A0008407F4CF2115310551F04217530738F048
:1032B000A901DB019A01BD01DF01F801C1CFEF01D6
:1032C000F9CF9093840780938307CDCFFE01E20F5F
:1032D000F31F819391932250310939832883D7CFEB
:1032E0002091810730918207232B41F42091040122
:1032F00030910501309382072093810720910201CC
:10330000309103012115310541F42DB73EB74091AD
:10331000060150910701241B350BE0918107F091C4
:103320008207E217F307A0F42E1B3F0B281739077B
:1033300078F0AC014E5F5F4F2417350748F04E0F11
:103340005F1F5093820740938107819391939FCF92
:10335000F0E0E0E09CCFCF93DF930097E9F0FC0131
:10336000329713821282A0918307B0918407ED01F6
:1033700030E020E01097A1F420813181820F931F6B
:1033800020918107309182072817390709F061C021
:10339000F0938207E0938107DF91CF910895EA01CE
:1033A000CE17DF07E8F54A815B819E014115510583
:1033B000B1F7E901FB83EA8349915991C40FD51F05
:1033C000EC17FD0761F4808191810296840F951FAF
:1033D000E90199838883828193819B838A83F0E0CA
:1033E000E0E012968D919C9113970097B9F52D917D
:1033F0003C911197CD010296820F931F2091810776
:10340000309182072817390739F6309751F5109215
:10341000840710928307B0938207A0938107BCCFE3
:10342000D383C28340815181840F951FC817D90768
:1034300061F44E5F5F4F88819981480F591F518316
:1034400040838A819B81938382832115310509F012
:10345000B0CFF0938407E09383079ECFFD01DC019A
:10346000C0CF13821282D7CFB0E0A0E0EAE3FAE146
:103470000C9438188C01009751F4CB010E940F195D
:103480008C01C801CDB7DEB7E0E10C945418FC0103
:10349000E60FF71F9C0122503109E217F30708F4E9
:1034A0009DC0D901CD91DC911197C617D70798F02F
:1034B000C530D10530F3CE0104978617970708F37E
:1034C000C61BD70B2297C193D1936D937C93CF01E9
:1034D0000E94AB19D6CF5B01AC1ABD0A4C018C0E11
:1034E0009D1EA0918307B0918407512C412CF12C93
:1034F000E12C109731F58091810790918207881512
:10350000990509F05CC04616570608F058C080912E
:10351000020190910301009741F48DB79EB740914D
:10352000060150910701841B950BE817F90708F075
:1035300055C0F0938207E0938107F901718360839E
:10354000A0CF8D919C91119712966C901297139623
:103550007C901397A815B90559F56C0142E0C40E8B
:10356000D11CCA14DB0420F1AC014A195B09DA0151
:103570001296159780F06282738251834083D9013D
:103580006D937C93E114F10471F0D7011396FC93D1
:10359000EE93129776CF22968C0F9D1FF90191839F
:1035A0008083F301EFCFF0938407E093830769CF23
:1035B0004816590608F42C017D01D3019ACFCB019E
:1035C0000E940F197C01009749F0AE01B8010E94DA
:1035D000F11AC8010E94AB19870153CF10E000E037
:1035E00050CFFB01DC0102C001900D9241505040D0
:1035F000D8F70895FB01DC0101900D920020E1F75E
:103600000895FB0151915523A9F0BF01DC014D91B3
:1036100045174111E1F759F4CD010190002049F01F
:103620004D9140154111C9F3FB014111EFCF81E0EC
:0A36300090E001970895F894FFCF91
:10363A0001010000850780000000400014005400CA
:10364A00000000005602C001ED01C3021E02FC0187
:10365A00100200000000A0037303B70449036C03BF
:10366A0059034A03000000006305C001B704B60409
:02367A0000004E
:00000001FF
